:100000000C9446000C945D000C945D000C945D0013
:100010000C945D000C945D000C945D000C945D00EC
:100020000C945D000C945D000C945D000C945D00DC
:100030000C945D000C945D000C945D000C945D00CC
:100040000C945D000C945D000C945D000C945D00BC
:100050000C945D000C945D000C945D000C945D00AC
:100060000C945D000C945D000C945D000C945D009C
:100070000C945D000C945D000C945D000C945D008C
:100080000C945D000C945D000C945D0011241FBE67
:10009000CFEFD0E4DEBFCDBF11E0A0E0B1E0E8E8F3
:1000A000F1E000E00BBF02C007900D92AE30B10747
:1000B000D9F70E9470000C94C2000C940000CF93FA
:1000C000C82F8A3019F48DE00E945F009091C00023
:1000D00095FFFCCFC093C60080E090E0CF910895DB
:1000E00011B88FEF82B987B918B89FEF80B1282F68
:1000F000207F203311F020E001C021E08F7089F1D2
:100100003FEF380F323078F13DEF380F323068F181
:100110003BEF380F323058F151E049EF480F423091
:1001200008F050E031E0893009F030E0352B09F576
:1001300051E046EF480F423008F050E031E08C309B
:1001400009F030E0352BB9F451E043EF480F42306D
:1001500008F050E031E08F3009F030E0352B69F4E1
:100160000DC090E00BC090E609C090E707C098E38F
:1001700005C09CE303C09EE301C09FE3211190688A
:0801800098B9B4CFF894FFCF49
:0E01880000000002000000005F000000000008
:00000001FF
